:100000000C9434000C9451000C9451000C94510049
:100010000C9451000C9451000C9451000C9451001C
:100020000C9451000C9451000C9451000C9451000C
:100030000C9451000C9451000C9451000C945100FC
:100040000C9451000C945E000C9451000C945100DF
:100050000C9451000C9451000C9451000C945100DC
:100060000C9451000C94510011241FBECFEFD8E026
:10007000DEBFCDBF11E0A0E0B1E0EEE3F2E002C0F0
:1000800005900D92A230B107D9F721E0A2E0B1E0CE
:1000900001C01D92A231B207E1F70E94DD000C946D
:1000A0001D010C940000259822982398249A2B9ADD
:1000B0008CB5806C8CBD1EBC209A08951F920F9247
:1000C0000FB60F9211248F939F93EF93FF93EEB58A
:1000D0008E2F807F90E0F4E096958795FA95E1F772
:1000E0008130910539F060F08230910559F0039725
:1000F00061F017C0EF70F0E0F0930101E0930001B0
:100100001EBC11C0809100010DC0EF70F0E0E8301E
:10011000F10538F4EE0FFF1FEE5FFE4F80819181F5
:1001200001C08FEF8EBD85B191E0892785B9FF9120
:10013000EF919F918F910F900FBE0F901F90189588
:100140009AB121E030E002C0220F331F8A95E2F716
:10015000922B9AB98BB1822B8BB945E34A95F1F773
:1001600000008BB1922F909589238BB98AB1892396
:100170008AB949EE53E0415051094115510531F01A
:1001800089B190E082239323892BA9F380E090E04A
:10019000019645E04A95F1F70000893A46E1940757
:1001A00031F049B150E042235323452B89F76AE3EC
:1001B00070E00E940901CB01089580E090E027E003
:1001C00030E0FC01EE0FFF1FEE5FFE4F3183208316
:1001D000019688309105A9F70E9453007894C0E0F9
:1001E000D0E0CE010E94A000FE01EE0FFF1FEE5FE7
:1001F000FE4F918380832FEF83EF91E02150804069
:100200009040E1F700C000002196C830D1054CF3C2
:10021000E6CFAA1BBB1B51E107C0AA1FBB1FA61735
:10022000B70710F0A61BB70B881F991F5A95A9F79F
:0E02300080959095BC01CD010895F894FFCF04
:02023E000800B6
:00000001FF
